S01C0000503030315F5573656C6573735F4D616368696E652E73726563D0
S11300000C9434000C9451000C9451000C94510045
S11300100C9451000C9451000C9451000C94510018
S11300200C9451000C9451000C9451000C94510008
S11300300C9451000C94BC040C9451000C94510089
S11300400C9451000C9451000C9451000C945100E8
S11300500C9451000C9451000C9451000C945100D8
S11300600C9451000C94510011241FBECFEFD8E022
S1130070DEBFCDBF16E0A0E0B1E0EAEDF9E002C0DA
S113008005900D92AE30B107D9F726E0AEE0B6E0A8
S113009001C01D92AD32B207E1F70E9416010C9423
S11300A0EB040C940000CF93DF931F92CDB7DEB71F
S11300B0898389818F3F19F410920E062AC08981A1
S11300C0282F30E0C901880F991F880F991F820FCC
S11300D0931F80509F4F9093110680931006809138
S11300E0100690911106FC01818180931206809183
S11300F0100690911106FC012081809110069091C8
S11301001106FC0183819481422FBC0180E00E948E
S1130110810300000F90DF91CF910895CF93DF9377
S1130120CDB7DEB782E00E9483020000DF91CF9159
S11301300895CF93DF93CDB7DEB7809113069091E6
S11301401406843F914041F481E080930F0610929D
S113015014061092130609C0809113069091140698
S11301600196909314068093130680910E06882FAF
S113017090E08130910531F18230910581F0892B35
S113018009F023C080910F068130F1F410920F061C
S113019080E00E94530081E080930E0615C0809198
S11301A01206882331F08091120681508093120642
S11301B00CC08091100690911106FC0182810E946E
S11301C0530003C0000001C000000000DF91CF9184
S11301D00895CF93DF93CDB7DEB780910E068130BB
S11301E019F482E080930E060000DF91CF91089508
S11301F0CF93DF93CDB7DEB70E9486040E94280117
S11302000E9497040000DF91CF910895CF93DF936C
S1130210CDB7DEB70E94A1020E94D4020E948E00D4
S11302200E94AD040000DF91CF910895CF93DF9336
S1130230CDB7DEB70E94F8000E94060178940E94B0
S11302403B02FDCFCF93DF93CDB7DEB70000FECFE7
S1130250CF93DF931F92CDB7DEB780912106882319
S113026099F519822AC08981882F90E0880F991FF7
S1130270880F991F8B5E994FFC0110828981482F4A
S113028050E08981282F30E0C901880F991F820F1F
S1130290931F880F991F85509A4FFC01208131814B
S11302A0CA01880F991F880F991F8A5E994FFC0114
S11302B03183208389818F5F89838981833098F298
S11302C081E08093210602C00E94220100000F9069
S11302D0DF91CF910895CF93DF931F92CDB7DEB70F
S11302E089838981482F50E08981882F90E0880F85
S11302F0991F880F991F8A5E994FFC016081718153
S11303008981282F30E0C901880F991F820F931F1C
S1130310880F991F83509A4FFC01808191819B0122
S1130320280F391FCA01880F991F880F991F8A5EE9
S1130330994FFC01318320838981882F90E0880FB5
S1130340991F880F991F8A5E994FFC014081518142
S11303508981282F30E0C901880F991F820F931FCC
S1130360880F991F83509A4FFC018081918148170F
S1130370590760F48981882F90E0880F991F880FAE
S1130380991F885E994F21E0FC01208300000F90A3
S1130390DF91CF910895CF93DF9300D0CDB7DEB72F
S11303A0F894809124068130A9F419820EC08981C1
S11303B0882F90E0880F991F880F991F885E994FA6
S11303C0FC01108289818F5F89838981833078F36E
S11303D01092240678941A8244C08A81882F90E06F
S11303E0880F991F880F991F8B5E994FFC0180819C
S11303F08130A1F58A81882F90E0880F991F880F9A
S1130400991F8A5E994FFC012081318180912206D7
S1130410909123068217930708F18A81882F90E030
S1130420880F991F880F991F885E994FFC0180815E
S11304308823A1F48A81282F30E0C901880F991FED
S1130440820F931F880F991F81509A4FFC0180815E
S11304509181FC0109958A810E946B018A818F5FD9
S11304608A838A81833008F4B8CF00000F900F90FC
S1130470DF91CF910895CF93DF93CDB7DEB780910D
S11304802106813019F40E94CB0102C00E9422018E
S11304900000DF91CF910895CF93DF93CDB7DEB7FE
S11304A080912106813099F480912206909123064F
S11304B001969093230680932206809122069091C0
S11304C02306892B31F481E08093240602C00E9424
S11304D022010000DF91CF910895CF93DF931F9203
S11304E0CDB7DEB789838981882F90E0880F991F63
S11304F0880F991F8B5E994FFC01108200000F90AA
S1130500DF91CF910895CF93DF931F92CDB7DEB7DC
S1130510898380912106813069F48981882F90E054
S1130520880F991F880F991F8B5E994F21E0FC015A
S1130530208302C00E94220100000F90DF91CF911E
S11305400895CF93DF93CDB7DEB780E00E94830296
S11305500000DF91CF910895CF93DF93CDB7DEB73D
S113056085E290E0FC018081829586958770882FD2
S113057090E081709927892B51F085E290E025E283
S113058030E0F90120812F7DFC01208309C085E240
S113059090E025E230E0F90120812062FC01208313
S11305A00000DF91CF910895CF93DF93CDB7DEB7ED
S11305B081E00E9483020000DF91CF910895CF93E0
S11305C0DF931F92CDB7DEB719827BC08981882F54
S11305D090E0880F991F880F991F880F991F8B5DD2
S11305E0994FFC018081882F90E0009719F00197C2
S11305F081F164C08981882F90E0880F991F880F4A
S1130600991F880F991F885D994FFC0120813181C2
S11306108981882F90E0880F991F880F991F880F70
S1130620991F865D994FFC018081918128173907B4
S113063009F441C08981882F90E0880F991F880FA1
S1130640991F880F991F8B5D994F21E0FC0120832E
S113065032C089810E94A3038981882F90E0880F8A
S1130660991F880F991F880F991F885D994FFC0166
S1130670208131818981882F90E0880F991F880F0C
S1130680991F880F991F865D994FFC018081918184
S11306902817390791F48981882F90E0880F991FD2
S11306A0880F991F880F991F8B5D994FFC01108249
S11306B00E94E90002C0000001C0000089818F5F30
S11306C089838981882309F481CF00000F90DF9109
S11306D0CF910895CF93DF931F92CDB7DEB789836F
S11306E08981882F90E0880F991F880F991F880FA0
S11306F0991F8B5D994FFC0180810F90DF91CF9101
S11307000895CF93DF9300D000D0CDB7DEB78983AF
S11307107B836A834C838981882F90E0880F991F9B
S1130720880F991F880F991F865D994F2A813B81F5
S1130730FC013183208300000F900F900F900F90E5
S1130740DF91CF910895CF93DF9300D01F92CDB75F
S1130750DEB78B838B81882F90E0880F991F880FD9
S1130760991F880F991F8B5D994F9A83898388E21B
S113077090E028E230E0F9012081622F29813A815A
S1130780F9012781422F50E021E030E002C0220F1E
S1130790331F4A95E2F720952623FC0120838981A3
S11307A09A81FC012381348189819A81FC018581AC
S11307B096818217930724F48B810E940E0410C043
S11307C089819A81FC012381348189819A81FC0188
S11307D085819681281739071CF48B810E944A046D
S11307E088E290E028E230E0F9012081622F29813B
S11307F03A81F9012781422F50E021E030E002C024
S1130800220F331F4A95E2F7262BFC0120830000B8
S11308100F900F900F90DF91CF910895CF93DF93B6
S113082000D01F92CDB7DEB78B838B81882F90E0E9
S1130830880F991F880F991F880F991F8B5D994FF7
S11308409A83898389819A81FC0187812FEF280FFC
S113085089819A81FC01278389819A81FC0187819E
S1130860282F237089819A81FC01278389819A81A9
S1130870FC01838194819C012150310989819A81F1
S1130880FC013483238300000F900F900F90DF91BD
S1130890CF910895CF93DF9300D01F92CDB7DEB7E9
S11308A08B838B81882F90E0880F991F880F991F65
S11308B0880F991F8B5D994F9A83898389819A81C7
S11308C0FC01878121E0280F89819A81FC0127831B
S11308D089819A81FC018781282F237089819A81DB
S11308E0FC01278389819A81FC01838194819C0185
S11308F02F5F3F4F89819A81FC0134832383000059
S11309000F900F900F90DF91CF910895CF93DF93C5
S1130910CDB7DEB781E690E020E8FC01208381E6D4
S113092090E0FC0110820000DF91CF910895CF93F5
S1130930DF93CDB7DEB780E890E0FC01108281E858
S113094090E025E0FC0120838FE690E021E0FC01AB
S113095020830000DF91CF910895CF93DF93CDB72B
S1130960DEB784E890E020EF3FEFFC013183208381
S11309700000DF91CF9108951F920F9200905F00C5
S11309800F9211242F933F934F935F936F937F9311
S11309908F939F93AF93BF93EF93FF93CF93DF9383
S11309A0CDB7DEB70E944C020E94AD040000DF9177
S11309B0CF91FF91EF91BF91AF919F918F917F91D3
S11309C06F915F914F913F912F910F9000925F0033
S10D09D00F901F901895F894FFCFC4
S11309DA02320132000232FFCEFF000000000000A2
S11309EA00000000000000000000000000000000F9
S11309FA00000000000000000000000000000000E9
S1130A0A00000000000000000000000000000000D8
S1130A1A00000000000000000000000000000000C8
S1130ECA00000000000000000000000000F401AC73
S1110EDA0200000300DF0200000A009900007D
S9030000FC
